{
  "abi": [
    {
      "anonymous": false,
      "inputs": [
        {
          "indexed": false,
          "internalType": "uint256",
          "name": "revisedInterest",
          "type": "uint256"
        }
      ],
      "name": "InterestUpdated",
      "type": "event"
    },
    {
      "anonymous": false,
      "inputs": [
        {
          "indexed": true,
          "internalType": "address",
          "name": "previousOwner",
          "type": "address"
        },
        {
          "indexed": true,
          "internalType": "address",
          "name": "newOwner",
          "type": "address"
        }
      ],
      "name": "OwnershipTransferred",
      "type": "event"
    },
    {
      "anonymous": false,
      "inputs": [
        {
          "indexed": false,
          "internalType": "address",
          "name": "account",
          "type": "address"
        }
      ],
      "name": "Paused",
      "type": "event"
    },
    {
      "anonymous": false,
      "inputs": [
        {
          "indexed": false,
          "internalType": "address",
          "name": "account",
          "type": "address"
        }
      ],
      "name": "Unpaused",
      "type": "event"
    },
    {
      "inputs": [
        {
          "internalType": "address",
          "name": "",
          "type": "address"
        }
      ],
      "name": "ERC20IsAccepted",
      "outputs": [
        {
          "internalType": "bool",
          "name": "",
          "type": "bool"
        }
      ],
      "stateMutability": "view",
      "type": "function"
    },
    {
      "inputs": [],
      "name": "Name",
      "outputs": [
        {
          "internalType": "string",
          "name": "",
          "type": "string"
        }
      ],
      "stateMutability": "pure",
      "type": "function"
    },
    {
      "inputs": [],
      "name": "Symbol",
      "outputs": [
        {
          "internalType": "string",
          "name": "",
          "type": "string"
        }
      ],
      "stateMutability": "pure",
      "type": "function"
    },
    {
      "inputs": [],
      "name": "owner",
      "outputs": [
        {
          "internalType": "address",
          "name": "",
          "type": "address"
        }
      ],
      "stateMutability": "view",
      "type": "function"
    },
    {
      "inputs": [],
      "name": "paused",
      "outputs": [
        {
          "internalType": "bool",
          "name": "",
          "type": "bool"
        }
      ],
      "stateMutability": "view",
      "type": "function"
    },
    {
      "inputs": [],
      "name": "renounceOwnership",
      "outputs": [],
      "stateMutability": "nonpayable",
      "type": "function"
    },
    {
      "inputs": [
        {
          "internalType": "address",
          "name": "newOwner",
          "type": "address"
        }
      ],
      "name": "transferOwnership",
      "outputs": [],
      "stateMutability": "nonpayable",
      "type": "function"
    },
    {
      "inputs": [
        {
          "internalType": "address",
          "name": "_contract",
          "type": "address"
        },
        {
          "internalType": "bool",
          "name": "_set",
          "type": "bool"
        }
      ],
      "name": "updateERC20Accepted",
      "outputs": [],
      "stateMutability": "nonpayable",
      "type": "function"
    },
    {
      "inputs": [
        {
          "internalType": "uint256",
          "name": "_newInterest",
          "type": "uint256"
        }
      ],
      "name": "updateInterest",
      "outputs": [],
      "stateMutability": "nonpayable",
      "type": "function"
    },
    {
      "inputs": [
        {
          "internalType": "uint256",
          "name": "_newMaxDuration",
          "type": "uint256"
        }
      ],
      "name": "updateMaxDuation",
      "outputs": [],
      "stateMutability": "nonpayable",
      "type": "function"
    }
  ],
  "bytecode": "608060405262eff10060035561064060045534801561001d57600080fd5b506100273361003d565b6000805460ff60a01b191690556001805561008d565b600080546001600160a01b038381166001600160a01b0319831681178455604051919092169283917f8be0079c531659141344cd1fd0a4f28419497f9722a3daafe3b4186f6b6457e09190a35050565b6105dd8061009c6000396000f3fe608060405234801561001057600080fd5b506004361061009e5760003560e01c80638da5cb5b116100665780638da5cb5b1461015457806399e16f0d1461016f5780639d62e95c14610182578063f2fde38b14610195578063fb092bba146101a857600080fd5b80633045aaf3146100a35780633c82c72a146100d55780635c975abb14610108578063715018a61461011a5780638052474d14610124575b600080fd5b6040805180820190915260048152631093941360e21b60208201525b6040516100cc919061048a565b60405180910390f35b6100f86100e33660046104fb565b60026020526000908152604090205460ff1681565b60405190151581526020016100cc565b600054600160a01b900460ff166100f8565b6101226101bb565b005b604080518082019091526014815273424e504c2050726f6d6973736f7279204e6f746560601b60208201526100bf565b6000546040516001600160a01b0390911681526020016100cc565b61012261017d36600461051d565b6101fa565b610122610190366004610536565b610293565b6101226101a33660046104fb565b6102e8565b6101226101b636600461051d565b610383565b6000546001600160a01b031633146101ee5760405162461bcd60e51b81526004016101e590610572565b60405180910390fd5b6101f8600061043a565b565b6000546001600160a01b031633146102245760405162461bcd60e51b81526004016101e590610572565b63ffffffff81111561028e5760405162461bcd60e51b815260206004820152602d60248201527f4475726174696f6e2063616e6f742065786365656420737061636520616c6c6f60448201526c1d1959081a5b881cdd1c9d58dd609a1b60648201526084016101e5565b600355565b6000546001600160a01b031633146102bd5760405162461bcd60e51b81526004016101e590610572565b6001600160a01b03919091166000908152600260205260409020805460ff1916911515919091179055565b6000546001600160a01b031633146103125760405162461bcd60e51b81526004016101e590610572565b6001600160a01b0381166103775760405162461bcd60e51b815260206004820152602660248201527f4f776e61626c653a206e6577206f776e657220697320746865207a65726f206160448201526564647265737360d01b60648201526084016101e5565b6103808161043a565b50565b6000546001600160a01b031633146103ad5760405162461bcd60e51b81526004016101e590610572565b6127108111156103ff5760405162461bcd60e51b815260206004820181905260248201527f426173697320706f696e74732063616e6e6f742065786365656420313030303060448201526064016101e5565b60048190556040518181527fea6dfd6d2633d9628db2f2e59654ec4e8c745c3fd6f05df0065037de020589e29060200160405180910390a150565b600080546001600160a01b038381166001600160a01b0319831681178455604051919092169283917f8be0079c531659141344cd1fd0a4f28419497f9722a3daafe3b4186f6b6457e09190a35050565b600060208083528351808285015260005b818110156104b75785810183015185820160400152820161049b565b818111156104c9576000604083870101525b50601f01601f1916929092016040019392505050565b80356001600160a01b03811681146104f657600080fd5b919050565b60006020828403121561050d57600080fd5b610516826104df565b9392505050565b60006020828403121561052f57600080fd5b5035919050565b6000806040838503121561054957600080fd5b610552836104df565b91506020830135801515811461056757600080fd5b809150509250929050565b6020808252818101527f4f776e61626c653a2063616c6c6572206973206e6f7420746865206f776e657260408201526060019056fea2646970667358221220cc0def9db96085c12152b8a6bf1b41af363fc70881f4d195340d5d30cd64956764736f6c634300080b0033",
  "bytecodeSha1": "e77254b5235ab01222428db15b80b30014802e25",
  "compiler": {
    "evm_version": "istanbul",
    "optimizer": {
      "enabled": true,
      "runs": 200
    },
    "version": "0.8.11+commit.d7f03943"
  },
  "contractName": "BNPLAdmin",
  "language": "Solidity",
  "natspec": {
    "kind": "dev",
    "methods": {
      "owner()": {
        "details": "Returns the address of the current owner."
      },
      "paused()": {
        "details": "Returns true if the contract is paused, and false otherwise."
      },
      "renounceOwnership()": {
        "details": "Leaves the contract without owner. It will not be possible to call `onlyOwner` functions anymore. Can only be called by the current owner. NOTE: Renouncing ownership will leave the contract without an owner, thereby removing any functionality that is only available to the owner."
      },
      "transferOwnership(address)": {
        "details": "Transfers ownership of the contract to a new account (`newOwner`). Can only be called by the current owner."
      }
    },
    "version": 1
  },
  "opcodes": "PUSH1 0x80 PUSH1 0x40 MSTORE CALLVALUE DUP1 ISZERO PUSH2 0x10 JUMPI PUSH1 0x0 DUP1 REVERT JUMPDEST POP PUSH1 0x4 CALLDATASIZE LT PUSH2 0x9E JUMPI PUSH1 0x0 CALLDATALOAD PUSH1 0xE0 SHR DUP1 PUSH4 0x8DA5CB5B GT PUSH2 0x66 JUMPI DUP1 PUSH4 0x8DA5CB5B EQ PUSH2 0x154 JUMPI DUP1 PUSH4 0x99E16F0D EQ PUSH2 0x16F JUMPI DUP1 PUSH4 0x9D62E95C EQ PUSH2 0x182 JUMPI DUP1 PUSH4 0xF2FDE38B EQ PUSH2 0x195 JUMPI DUP1 PUSH4 0xFB092BBA EQ PUSH2 0x1A8 JUMPI PUSH1 0x0 DUP1 REVERT JUMPDEST DUP1 PUSH4 0x3045AAF3 EQ PUSH2 0xA3 JUMPI DUP1 PUSH4 0x3C82C72A EQ PUSH2 0xD5 JUMPI DUP1 PUSH4 0x5C975ABB EQ PUSH2 0x108 JUMPI DUP1 PUSH4 0x715018A6 EQ PUSH2 0x11A JUMPI DUP1 PUSH4 0x8052474D EQ PUSH2 0x124 JUMPI JUMPDEST PUSH1 0x0 DUP1 REVERT JUMPDEST PUSH1 0x40 DUP1 MLOAD DUP1 DUP3 ADD SWAP1 SWAP2 MSTORE PUSH1 0x4 DUP2 MSTORE PUSH4 0x10939413 PUSH1 0xE2 SHL PUSH1 0x20 DUP3 ADD MSTORE JUMPDEST PUSH1 0x40 MLOAD PUSH2 0xCC SWAP2 SWAP1 PUSH2 0x48A JUMP JUMPDEST PUSH1 0x40 MLOAD DUP1 SWAP2 SUB SWAP1 RETURN JUMPDEST PUSH2 0xF8 PUSH2 0xE3 CALLDATASIZE PUSH1 0x4 PUSH2 0x4FB JUMP JUMPDEST PUSH1 0x2 PUSH1 0x20 MSTORE PUSH1 0x0 SWAP1 DUP2 MSTORE PUSH1 0x40 SWAP1 KECCAK256 SLOAD PUSH1 0xFF AND DUP2 JUMP JUMPDEST PUSH1 0x40 MLOAD SWAP1 ISZERO ISZERO DUP2 MSTORE PUSH1 0x20 ADD PUSH2 0xCC JUMP JUMPDEST PUSH1 0x0 SLOAD PUSH1 0x1 PUSH1 0xA0 SHL SWAP1 DIV PUSH1 0xFF AND PUSH2 0xF8 JUMP JUMPDEST PUSH2 0x122 PUSH2 0x1BB JUMP JUMPDEST STOP JUMPDEST PUSH1 0x40 DUP1 MLOAD DUP1 DUP3 ADD SWAP1 SWAP2 MSTORE PUSH1 0x14 DUP2 MSTORE PUSH20 0x424E504C2050726F6D6973736F7279204E6F7465 PUSH1 0x60 SHL PUSH1 0x20 DUP3 ADD MSTORE PUSH2 0xBF JUMP JUMPDEST PUSH1 0x0 SLOAD PUSH1 0x40 MLOAD PUSH1 0x1 PUSH1 0x1 PUSH1 0xA0 SHL SUB SWAP1 SWAP2 AND DUP2 MSTORE PUSH1 0x20 ADD PUSH2 0xCC JUMP JUMPDEST PUSH2 0x122 PUSH2 0x17D CALLDATASIZE PUSH1 0x4 PUSH2 0x51D JUMP JUMPDEST PUSH2 0x1FA JUMP JUMPDEST PUSH2 0x122 PUSH2 0x190 CALLDATASIZE PUSH1 0x4 PUSH2 0x536 JUMP JUMPDEST PUSH2 0x293 JUMP JUMPDEST PUSH2 0x122 PUSH2 0x1A3 CALLDATASIZE PUSH1 0x4 PUSH2 0x4FB JUMP JUMPDEST PUSH2 0x2E8 JUMP JUMPDEST PUSH2 0x122 PUSH2 0x1B6 CALLDATASIZE PUSH1 0x4 PUSH2 0x51D JUMP JUMPDEST PUSH2 0x383 JUMP JUMPDEST PUSH1 0x0 SLOAD PUSH1 0x1 PUSH1 0x1 PUSH1 0xA0 SHL SUB AND CALLER EQ PUSH2 0x1EE JUMPI PUSH1 0x40 MLOAD PUSH3 0x461BCD PUSH1 0xE5 SHL DUP2 MSTORE PUSH1 0x4 ADD PUSH2 0x1E5 SWAP1 PUSH2 0x572 JUMP JUMPDEST PUSH1 0x40 MLOAD DUP1 SWAP2 SUB SWAP1 REVERT JUMPDEST PUSH2 0x1F8 PUSH1 0x0 PUSH2 0x43A JUMP JUMPDEST JUMP JUMPDEST PUSH1 0x0 SLOAD PUSH1 0x1 PUSH1 0x1 PUSH1 0xA0 SHL SUB AND CALLER EQ PUSH2 0x224 JUMPI PUSH1 0x40 MLOAD PUSH3 0x461BCD PUSH1 0xE5 SHL DUP2 MSTORE PUSH1 0x4 ADD PUSH2 0x1E5 SWAP1 PUSH2 0x572 JUMP JUMPDEST PUSH4 0xFFFFFFFF DUP2 GT ISZERO PUSH2 0x28E JUMPI PUSH1 0x40 MLOAD PUSH3 0x461BCD PUSH1 0xE5 SHL DUP2 MSTORE PUSH1 0x20 PUSH1 0x4 DUP3 ADD MSTORE PUSH1 0x2D PUSH1 0x24 DUP3 ADD MSTORE PUSH32 0x4475726174696F6E2063616E6F742065786365656420737061636520616C6C6F PUSH1 0x44 DUP3 ADD MSTORE PUSH13 0x1D1959081A5B881CDD1C9D58DD PUSH1 0x9A SHL PUSH1 0x64 DUP3 ADD MSTORE PUSH1 0x84 ADD PUSH2 0x1E5 JUMP JUMPDEST PUSH1 0x3 SSTORE JUMP JUMPDEST PUSH1 0x0 SLOAD PUSH1 0x1 PUSH1 0x1 PUSH1 0xA0 SHL SUB AND CALLER EQ PUSH2 0x2BD JUMPI PUSH1 0x40 MLOAD PUSH3 0x461BCD PUSH1 0xE5 SHL DUP2 MSTORE PUSH1 0x4 ADD PUSH2 0x1E5 SWAP1 PUSH2 0x572 JUMP JUMPDEST PUSH1 0x1 PUSH1 0x1 PUSH1 0xA0 SHL SUB SWAP2 SWAP1 SWAP2 AND PUSH1 0x0 SWAP1 DUP2 MSTORE PUSH1 0x2 PUSH1 0x20 MSTORE PUSH1 0x40 SWAP1 KECCAK256 DUP1 SLOAD PUSH1 0xFF NOT AND SWAP2 ISZERO ISZERO SWAP2 SWAP1 SWAP2 OR SWAP1 SSTORE JUMP JUMPDEST PUSH1 0x0 SLOAD PUSH1 0x1 PUSH1 0x1 PUSH1 0xA0 SHL SUB AND CALLER EQ PUSH2 0x312 JUMPI PUSH1 0x40 MLOAD PUSH3 0x461BCD PUSH1 0xE5 SHL DUP2 MSTORE PUSH1 0x4 ADD PUSH2 0x1E5 SWAP1 PUSH2 0x572 JUMP JUMPDEST PUSH1 0x1 PUSH1 0x1 PUSH1 0xA0 SHL SUB DUP2 AND PUSH2 0x377 JUMPI PUSH1 0x40 MLOAD PUSH3 0x461BCD PUSH1 0xE5 SHL DUP2 MSTORE PUSH1 0x20 PUSH1 0x4 DUP3 ADD MSTORE PUSH1 0x26 PUSH1 0x24 DUP3 ADD MSTORE PUSH32 0x4F776E61626C653A206E6577206F776E657220697320746865207A65726F2061 PUSH1 0x44 DUP3 ADD MSTORE PUSH6 0x646472657373 PUSH1 0xD0 SHL PUSH1 0x64 DUP3 ADD MSTORE PUSH1 0x84 ADD PUSH2 0x1E5 JUMP JUMPDEST PUSH2 0x380 DUP2 PUSH2 0x43A JUMP JUMPDEST POP JUMP JUMPDEST PUSH1 0x0 SLOAD PUSH1 0x1 PUSH1 0x1 PUSH1 0xA0 SHL SUB AND CALLER EQ PUSH2 0x3AD JUMPI PUSH1 0x40 MLOAD PUSH3 0x461BCD PUSH1 0xE5 SHL DUP2 MSTORE PUSH1 0x4 ADD PUSH2 0x1E5 SWAP1 PUSH2 0x572 JUMP JUMPDEST PUSH2 0x2710 DUP2 GT ISZERO PUSH2 0x3FF JUMPI PUSH1 0x40 MLOAD PUSH3 0x461BCD PUSH1 0xE5 SHL DUP2 MSTORE PUSH1 0x20 PUSH1 0x4 DUP3 ADD DUP2 SWAP1 MSTORE PUSH1 0x24 DUP3 ADD MSTORE PUSH32 0x426173697320706F696E74732063616E6E6F7420657863656564203130303030 PUSH1 0x44 DUP3 ADD MSTORE PUSH1 0x64 ADD PUSH2 0x1E5 JUMP JUMPDEST PUSH1 0x4 DUP2 SWAP1 SSTORE PUSH1 0x40 MLOAD DUP2 DUP2 MSTORE PUSH32 0xEA6DFD6D2633D9628DB2F2E59654EC4E8C745C3FD6F05DF0065037DE020589E2 SWAP1 PUSH1 0x20 ADD PUSH1 0x40 MLOAD DUP1 SWAP2 SUB SWAP1 LOG1 POP JUMP JUMPDEST PUSH1 0x0 DUP1 SLOAD PUSH1 0x1 PUSH1 0x1 PUSH1 0xA0 SHL SUB DUP4 DUP2 AND PUSH1 0x1 PUSH1 0x1 PUSH1 0xA0 SHL SUB NOT DUP4 AND DUP2 OR DUP5 SSTORE PUSH1 0x40 MLOAD SWAP2 SWAP1 SWAP3 AND SWAP3 DUP4 SWAP2 PUSH32 0x8BE0079C531659141344CD1FD0A4F28419497F9722A3DAAFE3B4186F6B6457E0 SWAP2 SWAP1 LOG3 POP POP JUMP JUMPDEST PUSH1 0x0 PUSH1 0x20 DUP1 DUP4 MSTORE DUP4 MLOAD DUP1 DUP3 DUP6 ADD MSTORE PUSH1 0x0 JUMPDEST DUP2 DUP2 LT ISZERO PUSH2 0x4B7 JUMPI DUP6 DUP2 ADD DUP4 ADD MLOAD DUP6 DUP3 ADD PUSH1 0x40 ADD MSTORE DUP3 ADD PUSH2 0x49B JUMP JUMPDEST DUP2 DUP2 GT ISZERO PUSH2 0x4C9 JUMPI PUSH1 0x0 PUSH1 0x40 DUP4 DUP8 ADD ADD MSTORE JUMPDEST POP PUSH1 0x1F ADD PUSH1 0x1F NOT AND SWAP3 SWAP1 SWAP3 ADD PUSH1 0x40 ADD SWAP4 SWAP3 POP POP POP JUMP JUMPDEST DUP1 CALLDATALOAD PUSH1 0x1 PUSH1 0x1 PUSH1 0xA0 SHL SUB DUP2 AND DUP2 EQ PUSH2 0x4F6 JUMPI PUSH1 0x0 DUP1 REVERT JUMPDEST SWAP2 SWAP1 POP JUMP JUMPDEST PUSH1 0x0 PUSH1 0x20 DUP3 DUP5 SUB SLT ISZERO PUSH2 0x50D JUMPI PUSH1 0x0 DUP1 REVERT JUMPDEST PUSH2 0x516 DUP3 PUSH2 0x4DF JUMP JUMPDEST SWAP4 SWAP3 POP POP POP JUMP JUMPDEST PUSH1 0x0 PUSH1 0x20 DUP3 DUP5 SUB SLT ISZERO PUSH2 0x52F JUMPI PUSH1 0x0 DUP1 REVERT JUMPDEST POP CALLDATALOAD SWAP2 SWAP1 POP JUMP JUMPDEST PUSH1 0x0 DUP1 PUSH1 0x40 DUP4 DUP6 SUB SLT ISZERO PUSH2 0x549 JUMPI PUSH1 0x0 DUP1 REVERT JUMPDEST PUSH2 0x552 DUP4 PUSH2 0x4DF JUMP JUMPDEST SWAP2 POP PUSH1 0x20 DUP4 ADD CALLDATALOAD DUP1 ISZERO ISZERO DUP2 EQ PUSH2 0x567 JUMPI PUSH1 0x0 DUP1 REVERT JUMPDEST DUP1 SWAP2 POP POP SWAP3 POP SWAP3 SWAP1 POP JUMP JUMPDEST PUSH1 0x20 DUP1 DUP3 MSTORE DUP2 DUP2 ADD MSTORE PUSH32 0x4F776E61626C653A2063616C6C6572206973206E6F7420746865206F776E6572 PUSH1 0x40 DUP3 ADD MSTORE PUSH1 0x60 ADD SWAP1 JUMP INVALID LOG2 PUSH5 0x6970667358 0x22 SLT KECCAK256 0xCC 0xD 0xEF SWAP14 0xB9 PUSH1 0x85 0xC1 0x21 MSTORE 0xB8 0xA6 0xBF SHL COINBASE 0xAF CALLDATASIZE EXTCODEHASH 0xC7 ADDMOD DUP2 DELEGATECALL 0xD1 SWAP6 CALLVALUE 0xD 0x5D ADDRESS 0xCD PUSH5 0x956764736F PUSH13 0x634300080B0033000000000000 ",
  "sha1": "2e79cd452854b86fe17f746c8b4e9d78328ebe6d",
  "source": "// SPDX-License-Identifier: MIT\n\npragma solidity ^0.8.0;\n\nimport \"@openzeppelin/contracts/access/Ownable.sol\";\nimport \"@openzeppelin/contracts/security/Pausable.sol\";\nimport \"@openzeppelin/contracts/security/ReentrancyGuard.sol\";\n\ncontract BNPLAdmin is Ownable, Pausable, ReentrancyGuard{\n\nevent InterestUpdated(uint256 revisedInterest); // This event is fired whenever the admins change interest rates. Interest rates are measured in basis points. (1 Basis points = 0.01 percent)\nmapping (address => bool) public ERC20IsAccepted; // A mapping from an ERC20 currency address to whether that currency is accepted by this contract\nuint256 maxDuration = 26 weeks; // The maximum duration of any BNPL transaction started on this contract, measured in seconds.\nuint256 interest = 1600; // The percentage of the interest charged from the buyer\n\n/*constructor(address _network) {\n\n    // Accepted mainnet WETH\n    ERC20IsAccepted[_network] = true;\n\n}*/\n\nfunction Name() external pure returns (string memory){\n\n    return \"BNPL Promissory Note\";\n\n}\n\nfunction Symbol() external pure returns (string memory){\n\n    return \"BNPL\";\n\n}\n\nfunction updateERC20Accepted(address _contract, bool _set) external onlyOwner {\n    // This function can be called by admins to change the acceptance status of an ERC20 currency.\n    ERC20IsAccepted[_contract] = _set;\n\n}\n\nfunction updateMaxDuation(uint256 _newMaxDuration) external onlyOwner {\n    // This function can be called by admins to change the maxDuration. \n    require(_newMaxDuration <= uint256(~uint32(0)), \"Duration canot exceed space alloted in struct\");\n    maxDuration = _newMaxDuration;\n\n}\n\nfunction updateInterest(uint256 _newInterest) external onlyOwner {\n    // This function can be called by admins to change the percent of interest rate charged. \n    require(_newInterest <= 10000, \"Basis points cannot exceed 10000\");\n    interest = _newInterest;\n    emit InterestUpdated(_newInterest);\n\n}\n\n}",
  "sourcePath": "contracts/BNPLAdmin.sol",
  "type": "contract"
}